:020000040000FA
:040000002CEF3BF0B6
:10765800000176EF3BF092680E0EC16E920EC06E7E
:10766800000EC46E000EC36E120001C003F0D89065
:107678000336D89003363C0E0316C250C30B0310D2
:10768800C26EC2A203D0036A032A01D0036A010EA4
:10769800046E032A02D0D8900436032EFCD7C2A069
:1076A80003D0056A052A01D0056A010E066E052A6F
:1076B80002D0D8900636052EFCD706500410C21208
:1076C800C2B2FED7C350C4CF03F0046A03C004F0AB
:1076D800036A0310076E0450086E07C001F008C063
:1076E80002F01200720ED36E2FEC3BF0000E026E09
:1076F800020E016E39EC3BF001C009F002C00AF03D
:10770800000E0ABEFF0E0B6E0C6E010E73EC3CF001
:1077180009C017F00AC018F00BC019F00CC01AF015
:10772800F60E1B6E280E1C6E9C0E1D6E400E1E6EF5
:1077380057EC3EF017C03CF018C03DF019C03EF0C1
:107748001AC03FF03CC001F03DC002F03EC003F05B
:107758003FC004F0000E056E000E066E200E076E88
:10776800410E086E13EC3DF001C03CF002C03DF044
:1077780003C03EF004C03FF0020E316E450E306E7D
:10778800AA0EE82EFED7302EFCD7312EFAD7320EAD
:10779800016E000E026E000E046E000E036E000EE7
:1077A800066E0A0E056EDAEC3BF0A0D701C00BF0AE
:1077B80002C00CF005500610D8B412000BC0D9FF57
:1077C8000CC0DAFF03C0DFFF05500B24076E06501C
:1077D8000C20086EFF0E0724D96EFF0E0820DA6E03
:1077E80003C0DFFF065004E1030E055CD8A01200B9
:1077F80020EE01F00B50D9260C50DA2203C0DFFF2F
:1078080020EE02F00B50D9260C50DA2203C0DFFF1D
:1078180005500B24076E06500C20086EFE0E072438
:10782800D96EFF0E0820DA6E03C0DFFF05500B2467
:10783800076E06500C20086EFD0E0724D96EFF0E49
:107848000820DA6E03C0DFFF065004E1070E055C6E
:10785800D8A0120020EE03F00B50D9260C50DA22E3
:1078680003C0DFFF05500B24076E06500C20086E7E
:10787800FC0E0724D96EFF0E0820DA6E03C0DFFF66
:10788800065004E1090E055CD8A012000BC007F0F1
:107898000CC008F0071E081E074A082A030E071422
:1078A800096E0A6A09500B260A500C220950055E17
:1078B8000A50065AFC0E0516FF0E06160BD00BC012
:1078C800D9FF0CC0DAFF03C0DFFF0506D8A0060603
:1078D8000B4A0C2A05500610D8B41200F0D7116EC6
:1078E8001150D8A40CAE1AD009C00DF00AC00EF081
:1078F8000BC00FF00CC010F00D1E0E1E0F1E101E38
:107908000D2A000E0E220F2210220DC013F00EC0F9
:1079180014F00FC015F010C016F008D009C013F00D
:107928000AC014F00BC015F00CC016F009500A106C
:107938000B100C10D8A409D0000E096E000E0A6EA8
:10794800000E0B6E000E0C6E1200960E126E06D014
:10795800122AD8901632153214321332000E13142C
:107968000D6E000E14140E6E000E15140F6EFE0E22
:107978001614106E0D500E100F101010D8B40DD034
:10798800E7D7122A010E1326000E142215221622FA
:10799800D8901632153214321332000E13140D6EAD
:1079A800000E14140E6E000E15140F6EFF0E161432
:1079B800106E0D500E100F101010D8B407D0E1D76C
:1079C8001206D890133614361536163615BE03D05F
:1079D800020E1260F5D712A0159ED890123212C06E
:1079E8000DF00E6A0F6A106A0DC010F00F6A0E6A69
:1079F8000D6A0D5013120E5014120F50151210501C
:107A080016121150D8A40CAE01D0168E13C009F06E
:107A180014C00AF015C00BF016C00CF01200045088
:107A2800800B116E04500424186E03BE1880185081
:107A3800D8B40DD01828D8A408D0000E016E000EB6
:107A4800026E000E036E000E046E038E06D0000E4A
:107A5800016E000E026E000E036E000E046E0850DA
:107A6800800B111A08500824196E07BE1980195086
:107A7800D8B40DD01928D8A408D0000E056E000E71
:107A8800066E000E076E000E086E078E06D0000EFA
:107A9800056E000E066E000E076E000E086E05508D
:107AA800061007100810D8A417D0000E016E000E9B
:107AB800026E000E036E000E046E800E03127F0E1F
:107AC80004121150041201C001F002C002F003C0F8
:107AD80003F004C004F012001850D8A409D0000E16
:107AE800016E000E026E000E036E000E046E120090
:107AF800195018C009F00A6A095E000E0A5A7F0E6A
:107B08000924126E000E0A20136E01C00DF002C087
:107B18000EF003C00FF004C010F0000E016E000E4E
:107B2800026E000E036E000E046E000E146E000E40
:107B3800156E000E166E000E176E000E196E28D008
:107B48001950D8B411D0D8900D360E360F361036DD
:107B5800D890013602360336043617BE0180D89015
:107B6800143615361636173605500D5C06500E5865
:107B780007500F5808501058D8A009D0178C055036
:107B88000D5E06500E5A07500F5A0850105A192AFF
:107B9800190E1964D5D70D500E100F101010D8B447
:107BA80011D014800FD0D89001360236033604362F
:107BB80017BE0180D89014361536163617361206B9
:107BC800D8A0130603AEEFD7000E196E17AE17D064
:107BD800FF0E1414096EFF0E15140A6EFF0E16140C
:107BE8000B6E7F0E17140C6E09500A100B100C1038
:107BF800D8B403D0010E196E02D001B0FBD71950CA
:107C0800D8B41FD0010E0126000E0222032204223E
:107C180004A017D001C009F002C00AF003C00BF09D
:107C280004C00CF00C340C320B320A32093209C091
:107C380001F00AC002F00BC003F00CC004F0124AB5
:107C4800132A13BE10D0135003E11228D8A00BD06A
:107C5800000E136E1268000E016E000E026E000E0A
:107C6800036E000E046E13BE05D0135011E112040A
:107C7800D8B00ED0000E136E000E126E000E016EFC
:107C8800000E026E000E036E000E046E000E116EE2
:107C980012C018F018A002D0038E01D0039ED8900D
:107CA8001830046E0ED71A50800B236E1A501A24FF
:107CB800296E19BE29802950D8B40DD02928D8A4F6
:107CC80008D0000E176E000E186E000E196E000E0A
:107CD8001A6E198E08D0000E176E000E186E000E60
:107CE800196E000E1A6E1E50800B231A1E501E2489
:107CF800286E1DBE28802850D8B40DD02828D8A4B6
:107D080008D0000E1B6E000E1C6E000E1D6E000EBD
:107D18001E6E1D8E08D0000E1B6E000E1C6E000E0F
:107D28001D6E000E1E6E2850D8B403D02950D8A45A
:107D380009D0000E176E000E186E000E196E000E98
:107D48001A6E12001D501702F3CF2EF0F4CF2FF049
:107D58002E50246E256A266A276A2F502A6E2B6AAF
:107D68002C6A2D6A1C501802F3CF2EF0F4CF2FF096
:107D78002E502426000E2522262227222F502A267E
:107D8800000E2B222C222D221B501902F3CF2EF08D
:107D9800F4CF2FF02E502426000E2522262227224B
:107DA8002F502A26000E2B222C222D2226C027F007
:107DB80025C026F024C025F0246A1B501802F3CFF2
:107DC8002EF0F4CF2FF02E5024262F502522000E0F
:107DD8002622000E27221C501702F3CF2EF0F4CFD4
:107DE8002FF02E5024262F502522000E2622000E7A
:107DF800272226C027F025C026F024C025F0246AB3
:107E08001B501702F3CF2EF0F4CF2FF02E5024265C
:107E18002F502522000E2622000E27221D50180260
:107E2800F3CF2EF0F4CF2FF02E502A262F502B22EE
:107E3800000E2C22000E2D221C501902F3CF2EF01A
:107E4800F4CF2FF02E502A262F502B22000E2C2252
:107E5800000E2D221D501902F3CF2EF0F4CF2FF073
:107E68002E501F6E2F50206E216A226A21C022F0E8
:107E780020C021F01FC020F01F6A1F502A26205062
:107E88002B2221502C2222502D2224C01FF025C045
:107E980020F026C021F027C022F0190E05D0D89076
:107EA8002232213220321F32E82EF9D71F502A26DB
:107EB80020502B2221502C2222502D2226C027F080
:107EC80025C026F024C025F0246A285029C01FF0B8
:107ED800206A1F26000E2022820E1F242E6EFF0EFF
:107EE80020202F6E0FD0D8902A362B362C362D36E0
:107EF80027BE2A80D89024362536263627362E06E1
:107F0800D8A02F062CAEEFD7000E286E27AE17D0BC
:107F1800FF0E24141F6EFF0E2514206EFF0E26146C
:107F2800216E7F0E2714226E1F5020102110221060
:107F3800D8B403D0010E286E02D02AB0FBD728503F
:107F4800D8B41FD0010E2A26000E2B222C222D2257
:107F58002DA017D02AC01FF02BC020F02CC021F074
:107F68002DC022F022342232213220321F321FC08B
:107F78002AF020C02BF021C02CF022C02DF02E4A70
:107F88002F2A2FBE0DD02F5003E12E28D8A008D0BD
:107F9800000E2A6E000E2B6E800E2C6E7F0E20D0E7
:107FA8002FBE05D02F500EE12E04D8B00BD0000EF6
:107FB8002A6E000E2B6E000E2C6E000E2D6E000E1B
:107FC800236E0FD02EC029F0FF0E2A16FF0E2B1697
:107FD8007F0E2C16000E2D1629B02C8ED890293025
:107FE8002D6E23502D122AC017F02BC018F02CC06C
:087FF80019F02DC01AF012006F
:020000040020DA
:08000000FFFFFFFFFFFFFFFF00
:020000040030CA
:0E00000000051F1FFF8385FF0FC00FE00F409C
:00000001FF
