:020000040000FA
:0400000066EF10F0A7
:10080000002564256343002564252500483A20001F
:05081000543A20000035
:10081600720ED36E95EC10F038EC10F03C0E926E22
:100826009494929492969298929A000E00018A6FEE
:10083600280E896F000E8C6F230E8B6F000E876F4C
:10084600190E866FF60E1B6E280E1C6E9C0E1D6E04
:10085600400E1E6E000E026E000E016ECAEC0EF009
:1008660001C009F002C00AF0000E0ABEFF0E0B6EB0
:100876000C6E010E9FEC0BF009C017F00AC018F0C1
:100886000BC019F00CC01AF0FAEC05F017C030F0E6
:1008960018C031F019C032F01AC033F0000E346EB1
:1008A600000E356E200E366E410E376EA3EC07F045
:1008B60030C091F031C092F032C093F033C094F062
:1008C600F60E1B6E280E1C6E9C0E1D6E400E1E6EC6
:1008D600000E026E010E016ECAEC0EF001C009F0A8
:1008E60002C00AF0000E0ABEFF0E0B6E0C6E010E61
:1008F6009FEC0BF009C017F00AC018F00BC019F0F6
:100906000CC01AF0FAEC05F017C030F018C031F040
:1009160019C032F01AC033F0000E346E000E356E78
:10092600200E366E410E376EA3EC07F030C08DF008
:1009360031C08EF032C08FF033C090F0720E0001DD
:10094600606F000E616F010E626F080E636F91C0DB
:1009560001F092C002F093C003F094C004F0D2EC10
:100966000DF001C064F002C065F0000E0001676F73
:10097600DF0E666F32EC0FF07C0E0001606F000E2A
:10098600616F070E626F080E636F8DC001F08EC037
:1009960002F08FC003F090C004F0D2EC0DF001C05D
:1009A60064F002C065F0000E0001676FDF0E666F2F
:1009B60032EC0FF09FEC10F0000E056E100E066E76
:1009C600080E076E010E05EC10F0040E056E720E91
:1009D600066E000E076E010E05EC10F0000E056E99
:1009E6000C0E066E080E076E020E05EC10F0040ED5
:1009F600056E7C0E066E000E076E020E05EC10F0FC
:100A0600720E016E000E026E000E046E000E036E74
:100A1600000E066E0A0E056E3FEC0CF07C0E016EA3
:100A2600000E026E000E046E000E036E000E066EC1
:100A36000A0E056E3FEC0CF08DC017F08EC018F054
:100A46008FC019F090C01AF089C009F08AC00AF068
:100A5600000E0ABEFF0E0B6E0C6E010E9FEC0BF025
:100A660009C01BF00AC01CF00BC01DF00CC01EF024
:100A76006AEC0DF0D8B003D0596A592A01D0596AE8
:100A8600593A89505918EF0B5918896E91C017F0C9
:100A960092C018F093C019F094C01AF0000E1B6EA5
:100AA600000E1C6EC80E1D6E410E1E6E6AEC0DF019
:100AB600D8B003D0596A592A01D0596A59465946BD
:100AC60089505918FB0B5918896E91C017F092C0BE
:100AD60018F093C019F094C01AF08BC009F08CC0BE
:100AE6000AF0000E0ABEFF0E0B6E0C6E010E9FEC96
:100AF6000BF009C01BF00AC01CF00BC01DF00CC0A7
:100B06001EF06AEC0DF0D8B003D0CAEC0FF002D09C
:100B1600ABEC0FF0000E0001886F86C009F087C0AD
:100B26000AF0000E0ABEFF0E0B6E0C6E010E9FEC55
:100B36000BF009C017F00AC018F00BC019F00CC072
:100B46001AF091C01BF092C01CF093C01DF094C027
:100B56001EF06AEC0DF0D8B043D091C017F092C0E9
:100B660018F093C019F094C01AF08BC009F08CC02D
:100B76000AF0000E0ABEFF0E0B6E0C6E010E9FEC05
:100B86000BF009C01BF00AC01CF00BC01DF00CC016
:100B96001EF06AEC0DF0D8B023D089C009F08AC0E7
:100BA6000AF0000E0ABEFF0E0B6E0C6E010E9FECD5
:100BB6000BF009C017F00AC018F00BC019F00CC0F2
:100BC6001AF08DC01BF08EC01CF08FC01DF090C0B7
:100BD6001EF06AEC0DF0D8B003D0010E0001886F4C
:100BE600000188B102D0899A01D0898A2BD61A5081
:100BF600800B236E1A501A24296E19BE298029509B
:100C0600D8B40DD02928D8A408D0000E176E000E2F
:100C1600186E000E196E000E1A6E198E08D0000E90
:100C2600176E000E186E000E196E000E1A6E1E500C
:100C3600800B231A1E501E24286E1DBE28802850A5
:100C4600D8B40DD02828D8A408D0000E1B6E000EEC
:100C56001C6E000E1D6E000E1E6E1D8E08D0000E40
:100C66001B6E000E1C6E000E1D6E000E1E6E2850B2
:100C7600D8B403D02950D8A409D0000E176E000EA0
:100C8600186E000E196E000E1A6E12001D50170215
:100C9600F3CF2EF0F4CF2FF02E50246E256A266A5D
:100CA600276A2F502A6E2B6A2C6A2D6A1C5018024E
:100CB600F3CF2EF0F4CF2FF02E502426000E25224F
:100CC600262227222F502A26000E2B222C222D22C6
:100CD6001B501902F3CF2EF0F4CF2FF02E502426FE
:100CE600000E2522262227222F502A26000E2B22EE
:100CF6002C222D2226C027F025C026F024C025F060
:100D0600246A1B501802F3CF2EF0F4CF2FF02E508A
:100D160024262F502522000E2622000E27221C50A4
:100D26001702F3CF2EF0F4CF2FF02E5024262F509B
:100D36002522000E2622000E272226C027F025C0D7
:100D460026F024C025F0246A1B501702F3CF2EF09C
:100D5600F4CF2FF02E5024262F502522000E2622C7
:100D6600000E27221D501802F3CF2EF0F4CF2FF0DD
:100D76002E502A262F502B22000E2C22000E2D221A
:100D86001C501902F3CF2EF0F4CF2FF02E502A2646
:100D96002F502B22000E2C22000E2D221D50190240
:100DA600F3CF2EF0F4CF2FF02E501F6E2F50206E63
:100DB600216A226A21C022F020C021F01FC020F043
:100DC6001F6A1F502A2620502B2221502C222250E7
:100DD6002D2224C01FF025C020F026C021F027C0F8
:100DE60022F0190E05D0D8902232213220321F323D
:100DF600E82EF9D71F502A2620502B2221502C22CC
:100E060022502D2226C027F025C026F024C025F02A
:100E1600246A285029C01FF0206A1F26000E2022AF
:100E2600820E1F242E6EFF0E20202F6E0FD0D8901C
:100E36002A362B362C362D3627BE2A80D8902436D5
:100E46002536263627362E06D8A02F062CAEEFD707
:100E5600000E286E27AE17D0FF0E24141F6EFF0E4D
:100E66002514206EFF0E2614216E7F0E2714226E87
:100E76001F50201021102210D8B403D0010E286E66
:100E860002D02AB0FBD72850D8B41FD0010E2A268C
:100E9600000E2B222C222D222DA017D02AC01FF0A7
:100EA6002BC020F02CC021F02DC022F0223422329B
:100EB600213220321F321FC02AF020C02BF021C061
:100EC6002CF022C02DF02E4A2F2A2FBE0DD02F50E7
:100ED60003E12E28D8A008D0000E2A6E000E2B6E35
:100EE600800E2C6E7F0E20D02FBE05D02F500EE127
:100EF6002E04D8B00BD0000E2A6E000E2B6E000EFC
:100F06002C6E000E2D6E000E236E0FD02EC029F013
:100F1600FF0E2A16FF0E2B167F0E2C16000E2D1610
:100F260029B02C8ED89029302D6E23502D122AC030
:100F360017F02BC018F02CC019F02DC01AF01200B3
:100F46003350800B406E33503324476E32BE478099
:100F56004750D8B40DD04728D8A408D0000E306E1C
:100F6600000E316E000E326E000E336E328E06D0DB
:100F7600000E306E000E316E000E326E000E336EB5
:100F86003750800B401A37503724486E36BE48809B
:100F96004850D8B40DD04828D8A408D0000E346ED6
:100FA600000E356E000E366E000E376E368E06D08B
:100FB600000E346E000E356E000E366E000E376E65
:100FC6003450351036103710D8A417D0000E306EB6
:100FD600000E316E000E326E000E336E800E32122F
:100FE6007F0E33124050331230C030F031C031F032
:100FF60032C032F033C033F012004750D8A409D0C3
:10100600000E306E000E316E000E326E000E336E24
:101016001200485047C038F0396A385E000E395A17
:101026007F0E3824416E000E3920426E30C03CF0EF
:1010360031C03DF032C03EF033C03FF0000E306E9E
:10104600000E316E000E326E000E336E000E436ED1
:10105600000E446E000E456E000E466E000E486E83
:1010660028D04850D8B411D0D8903C363D363E36BC
:101076003F36D890303631363236333646BE30803B
:10108600D890433644364536463634503C5C355067
:101096003D5836503E5837503F58D8A009D0468C58
:1010A60034503C5E35503D5A36503E5A37503F5AC2
:1010B600482A190E4864D5D73C503D103E103F10C3
:1010C600D8B411D043800FD0D8903036313632366E
:1010D600333646BE3080D89043364436453646369B
:1010E6004106D8A0420632AEEFD7000E486E46AE95
:1010F60017D0FF0E4314386EFF0E4414396EFF0EE0
:1011060045143A6E7F0E46143B6E385039103A102D
:101116003B10D8B403D0010E486E02D030B0FBD7D6
:101126004850D8B41FD0010E3026000E312232228C
:10113600332233A017D030C038F031C039F032C076
:101146003AF033C03BF03B343B323A323932383234
:1011560038C030F039C031F03AC032F03BC033F01D
:10116600414A422A42BE10D0425003E14128D8A04B
:101176000BD0000E426E4168000E306E000E316ECE
:10118600000E326E000E336E42BE05D0425011E1A3
:101196004104D8B00ED0000E426E000E416E000E15
:1011A600306E000E316E000E326E000E336E000E83
:1011B600406E41C047F047A002D0328E01D0329E29
:1011C600D8904730336E0ED71EC036F01FC037F0AA
:1011D60020C038F021C039F022C03AF023C03BF0DD
:1011E60024C03CF025C03DF03DAE02D0010E01D03A
:1011F600000E346E356A34503510D8B410D03D1E0A
:101206003C1E3B1E3A1E391E381E371E366C000E1B
:101216003722382239223A223B223C223D225DAE39
:101226005E925DBE05D05D5008E15C04D8B005D085
:10123600000E316E010E306E04D05CC030F05DC021
:1012460031F05AC032F05BC033F034503510D8A4B8
:1012560002D05EA403D03206D8A03306000E3F6E3D
:101266001F0E3E6E000E0001B66F7CD03E06D8A063
:101276003F06970E3E24D96E000E3F20DA6E36C02A
:1012860001F037C002F038C003F039C004F03AC0AC
:1012960005F03BC006F03CC007F03DC008F00A0E62
:1012A600096E000E0A6E000E0B6E000E0C6E000E1E
:1012B6000D6E000E0E6E000E0F6E000E106ED8EC48
:1012C6000CF001C026F002C027F003C028F004C0CD
:1012D60029F005C02AF006C02BF007C02CF008C084
:1012E6002DF026C013F028C014F01FEC10F0135098
:1012F600300FDF6E3006D8A031063206D8A033068E
:1013060036C001F037C002F038C003F039C004F02F
:101316003AC005F03BC006F03CC007F03DC008F0FF
:101326000A0E096E000E0A6E000E0B6E000E0C6E93
:10133600000E0D6E000E0E6E000E0F6E000E106E7D
:10134600FBEC0AF001C036F002C037F003C038F0FB
:1013560004C039F005C03AF006C03BF007C03CF0C7
:1013660008C03DF03FBE1FD03F5003E13E04D8A069
:101376001AD036503710381039103A103B103C103E
:101386003D10D8A473D731BE05D0315002E13004E8
:10139600D8B06CD733BE07D0335003E13204D8A09F
:1013A60002D05EB263D734503510D8A402D05EA402
:1013B60017D03E06D8A03F0634503510D8A404D026
:1013C600000E2F6E2B0E03D0000E2F6E2D0E2E6EDE
:1013D600970E3E24D96E000E3F20DA6E2EC0DFFF38
:1013E6001CC011F01DC012F0970E3E24136E000EA5
:1013F6003F20146E32C015F033C016F07FEC0EF0AD
:1014060011C01CF012C01DF0120042C0D9FF43C02B
:10141600DAFFDECFF6FFDDCFF7FF0800F550250A2D
:10142600D8A4CCD042C0D9FF43C0DAFFDE2A000ED2
:10143600DD22000E5B6E000E5A6E5AC05EF05BC077
:101446005FF05C685D6842C0D9FF43C0DAFFDECF5B
:10145600F6FFDDCFF7FF0800F550630AD8A426D0C3
:1014660042C0D9FF43C0DAFFDE2A000EDD2244C0A7
:10147600D9FF45C0DAFFDFCF46F0020EDE26DFCF0A
:1014860047F0000EDD2246C0D9FF47C0DAFFDF5025
:10149600506E40C01CF041C01DF050C01EF084ECE0
:1014A6000FF01CC040F01DC041F0120042C0D9FF31
:1014B60043C0DAFFDECFF6FFDDCFF7FF0800F550B9
:1014C600640AD8B40DD042C0D9FF43C0DAFFDECFDC
:1014D600F6FFDDCFF7FF0800F550690AD8A43FD024
:1014E60042C0D9FF43C0DAFFDE2A000EDD2244C027
:1014F600D9FF45C0DAFFDFCF46F0020EDE26DFCF8A
:1015060047F0000EDD2246C0D9FF47C0DAFFDECF26
:1015160048F0DDCF49F0000E49BEFF0E4A6E4B6E15
:101526004C6E4D6E4E6E4F6E40C01CF041C01DF0AD
:1015360048C01EF049C01FF04AC020F04BC021F041
:101546004CC022F04DC023F04EC024F04FC025F011
:10155600E7EC08F01CC040F01DC041F0120042C08C
:10156600D9FF43C0DAFFDECFF6FFDDCFF7FF080075
:10157600F550250AD8A416D042C0D9FF43C0DAFFD9
:10158600DE2A000EDD22000E026E250E016E40C020
:1015960003F041C004F02FEC0EF0000E416E010E78
:1015A600406E120042C0D9FF43C0DAFFDE2A000EA9
:1015B600DD22000E416E000E406E120042C0D9FFC1
:1015C60043C0DAFFDECFF6FFDDCFF7FF0800F550A8
:1015D600016E026A40C003F041C004F02FEC0EF029
:1015E60042C0D9FF43C0DAFFDE2A000EDD22D5D77E
:1015F600000E126E10AE12D0101E0F1E0E1E0D1E05
:101606000C1E0B1E0A1E096C000E0A220B220C224F
:101616000D220E220F221022010E126E08AE12D0DB
:10162600081E071E061E051E041E031E021E016C52
:10163600000E022203220422052206220722082285
:10164600010E121A20EE13F0070EDE6AE806FDE21E
:1016560009500A100B100C100D100E100F10101060
:10166600D8B446D0010E116E0AD0D89009360A3683
:101676000B360C360D360E360F361036112A10AED6
:10168600F4D7D8901336143615361636173618365C
:1016960019361A360950015C0A5002580B50035885
:1016A6000C5004580D5005580E5006580F50075848
:1016B60010500858D8A011D00950015E0A50025A9D
:1016C6000B50035A0C50045A0D50055A0E50065A28
:1016D6000F50075A1050085A1380D89010320F3204
:1016E6000E320D320C320B320A320932112EC9D7A4
:1016F6001250D8B410D01A1E191E181E171E161E08
:10170600151E141E136C000E142215221622172203
:10171600182219221A2213C001F014C002F015C0B3
:1017260003F016C004F017C005F018C006F019C083
:1017360007F01AC008F01200116E1150D8A40CAEB2
:101746001AD009C00DF00AC00EF00BC00FF00CC085
:1017560010F00D1E0E1E0F1E101E0D2A000E0E225C
:101766000F2210220DC013F00EC014F00FC015F09A
:1017760010C016F008D009C013F00AC014F00BC050
:1017860015F00CC016F009500A100B100C10D8A456
:1017960009D0000E096E000E0A6E000E0B6E000ECA
:1017A6000C6E1200960E126E06D0122AD8901632C1
:1017B600153214321332000E13140D6E000E14146B
:1017C6000E6E000E15140F6EFE0E1614106E0D50D2
:1017D6000E100F101010D8B40DD0E7D7122A010E34
:1017E6001326000E142215221622D8901632153210
:1017F60014321332000E13140D6E000E14140E6EF6
:10180600000E15140F6EFF0E1614106E0D500E10EE
:101816000F101010D8B407D0E1D71206D89013369F
:1018260014361536163615BE03D0020E1260F5D7DD
:1018360012A0159ED890123212C00DF00E6A0F6AD1
:10184600106A0DC010F00F6A0E6A0D6A0D50131261
:101856000E5014120F501512105016121150D8A413
:101866000CAE01D0168E13C009F014C00AF015C0D4
:101876000BF016C00CF0120001C00BF002C00CF009
:1018860005500610D8B412000BC0D9FF0CC0DAFF01
:1018960003C0DFFF05500B24076E06500C20086EB0
:1018A600FF0E0724D96EFF0E0820DA6E03C0DFFF95
:1018B600065004E1030E055CD8A0120020EE01F0EC
:1018C6000B50D9260C50DA2203C0DFFF20EE02F0BF
:1018D6000B50D9260C50DA2203C0DFFF05500B242B
:1018E600076E06500C20086EFE0E0724D96EFF0EFA
:1018F6000820DA6E03C0DFFF05500B24076E065082
:101906000C20086EFD0E0724D96EFF0E0820DA6E35
:1019160003C0DFFF065004E1070E055CD8A01200E5
:1019260020EE03F00B50D9260C50DA2203C0DFFF5D
:1019360005500B24076E06500C20086EFC0E07247B
:10194600D96EFF0E0820DA6E03C0DFFF065004E1F1
:10195600090E055CD8A012000BC007F00CC008F0F9
:10196600071E081E074A082A030E0714096E0A6A8C
:1019760009500B260A500C220950055E0A50065AD9
:10198600FC0E0516FF0E06160BD00BC0D9FF0CC0B9
:10199600DAFF03C0DFFF0506D8A006060B4A0C2AAD
:1019A60005500610D8B41200F0D7000E126E08AE1D
:1019B60012D0081E071E061E051E041E031E021E4A
:1019C600016C000E022203220422052206220722AF
:1019D6000822010E126E10AE10D0101E0F1E0E1E23
:1019E6000D1E0C1E0B1E0A1E096C000E0A220B226F
:1019F6000C220D220E220F22102209500A100B1063
:101A06000C100D100E100F101010D8B43CD0010E93
:101A1600116E0AD0D89009360A360B360C360D36BA
:101A26000E360F361036112A10AEF4D70950015C67
:101A36000A5002580B5003580C5004580D500558C4
:101A46000E5006580F50075810500858D8A010D0FE
:101A56000950015E0A50025A0B50035A0C50045AA0
:101A66000D50055A0E50065A0F50075A1050085A74
:101A7600D89010320F320E320D320C320B320A323F
:101A86000932112ED3D71250D8B410D0081E071E13
:101A9600061E051E041E031E021E016C000E0222F7
:101AA60003220422052206220722082201C001F091
:101AB60002C002F003C003F004C004F005C005F044
:101AC60006C006F007C007F008C008F01200000EB6
:101AD60017141F6E000E1814206E800E1914216E36
:101AE6007F0E1A14226E1F50201021102210D8A427
:101AF60008D0000E176E000E186E000E196E000E3E
:101B06001A6E000E1B141F6E000E1C14206E800E23
:101B16001D14216E7F0E1E14226E1F5020102110E0
:101B26002210D8A408D0000E1B6E000E1C6E000EEC
:101B36001D6E000E1E6E1AAE09D0176C181ED8B098
:101B4600182A191ED8B0192A800E1A561EAE09D0A8
:101B56001B6C1C1ED8B01C2A1D1ED8B01D2A800E58
:101B66001E56000E171A000E181A000E191A800EAD
:101B76001A1A000E1B1A000E1C1A000E1D1A800ED1
:101B86001E1A1B50175C1C5018581D5019581E5011
:101B96001A58D8B002D0D8901200D8801200033458
:101BA60004340A6E0A50D8A409D0000E016E000E45
:101BB600026E000E036E000E046E120001C005F0E8
:101BC60002C006F003C007F004C008F0200E05D0DE
:101BD600D8900832073206320532E82EF9D705507A
:101BE600096E038EFF0E0116FF0E0216FF0E031678
:101BF600000E0416960E0A5E0AAE0DD00A50800A32
:101C0600970FD8A0D2D7D8900432033202320132CD
:101C16000A3EF9D70DD01F0E0A6407D0C6D7D89052
:101C260001360236033604360A060A50D8A4F7D718
:101C36000950D8B408D0041E031E021E016C000E03
:101C460002220322042201C001F002C002F003C0F6
:101C560003F004C004F0120003500410D8B404D0FA
:101C660003500410D8A404D00150A3EC10F01200C5
:101C760020EE04F00350D9260450DA22DE50DE109E
:101C8600D8B416D020EE04F00350D9260450DA2238
:101C960010EE02F00350E1260450E222DE50E65C2C
:101CA600E650800A096EDE50800A0958D8B0120044
:101CB60020EE02F00350D9260450DA22DECF05F0DA
:101CC600DDCF06F003C0D9FF04C0DAFFDECF07F090
:101CD600DDCF08F005500724D96E06500820DA6ECD
:101CE60001C0DFFF20EE02F00350D9260450DA22AD
:101CF600DE2A000EDD2212005EA00AD013C00AF012
:101D060014C00BF011C00CF012C00DF0E9EC0FF08E
:101D160016BE05D015C01AF016C01BF004D0000E72
:101D26001B6E000E1A6E000E196E000E186E0CD089
:101D3600000E026E200E016E11C003F012C004F0F8
:101D46002FEC0EF0184A192A1A50185C1950800AFE
:101D5600176E1B50800A1758D8A0EAD75EB00AD073
:101D660013C00AF014C00BF011C00CF012C00DF035
:101D7600E9EC0FF013C001F014C002F051EC10F0C2
:101D86001A500124116E1B500220126E120001C05F
:101D960003F0D8900336D89003363C0E0316C25093
:101DA600C30B0310C26EC2A203D0036A032A01D07A
:101DB600036A010E046E032A02D0D8900436032E5D
:101DC600FCD7C2A003D0056A052A01D0056A010E18
:101DD600066E052A02D0D8900636052EFCD7065088
:101DE6000410C212C2B2FED7C350C4CF03F0046AB5
:101DF60003C004F0036A0310076E0450086E07C0A0
:101E060001F008C002F0120053C057F054C058F059
:101E1600000E0001966F000E956F13D051C040F072
:101E260052C041F0570E426E000E436E55C044F04C
:101E360056C045F008EC0AF0405000019527415085
:101E4600962357C0F6FF58C0F7FF0800F550000963
:101E5600D8A4E4D795C051F096C052F01200640E93
:101E660000016A6F000E6B6F60C06CF061C06DF0B0
:101E7600000E6F6F000E6E6F000E716F000E706FAA
:101E86006C0E516E000E526E62C053F063C054F079
:101E96006A0E556E000E566E07EC0FF000016E517D
:101EA6006025D96E6F516121DA6E000EDF6E120069
:101EB60014D003C0F6FF04C0F7FFF86A070EF764F4
:101EC60003D00800F55005D0F6CFE1FFF7CFE2FFCB
:101ED600E75077EC10F0034A042A03C0F6FF04C06B
:101EE600F7FFF86A070EF76403D00800F55005D02F
:101EF600F6CFE1FFF7CFE2FFE7500009D8B41200B2
:101F0600D8D75A505B10D8A405D05AC01FF05BC072
:101F160020F006D0FF0E5A241F6EFF0E5B20206EA7
:101F26001EC097F0000E0001986F1CC011F01DC076
:101F360012F0970E136E000E146E1FC015F020C01F
:101F460016F07FEC0EF011C01CF012C01DF012004E
:101F5600000E036E000E026E8B84060E016EB60E28
:101F6600E82EFED7012EFCD78B942F0E016E3A0E6B
:101F7600E82EFED7012EFCD700D0024A032A0350D2
:101F860005E1320E025CD8B01200E6D71200000E50
:101F9600036E000E026E8B84040E016EE40EE82EB4
:101FA600FED7012EFCD700D08B94310E016E0C0E9D
:101FB600E82EFED7012EFCD7024A032A035005E17C
:101FC600320E025CD8B01200E6D71200000E106E78
:101FD600000E0F6E0BD00EC001F0026A0CC003F0AB
:101FE6000DC004F02FEC0EF00F4A102A0F500A24F1
:101FF600D96E10500B20DA6EDF500E6E0E50D8B42C
:102006001200E9D7086E020E086008D005500F0BC3
:102016008009096E095086EC10F007D005500F0BA9
:10202600C009096E095086EC10F006C003F007C01F
:1020360004F05BEC0FF0120014BE05D0145010E152
:102046001304D8B00DD013C015F014C016F0151E29
:10205600161E154A162A15C013F016C014F01200E3
:1020660013C013F014C014F01200270E036EF50E01
:10207600E82EFED7032EFCD700F0000E936E000E5E
:10208600956E380E86EC10F0010E86EC10F00C0EF4
:1020960086EC10F0060E86EC10F0120001C003F07C
:1020A60002C004F002D0014A022A01C0D9FF02C0D0
:1020B600DAFFDF50D8A4F7D70350015C016E045055
:1020C6000258026E120000EE95F0220EEE6AE80645
:1020D600FDE15F6A5E6A5D6A5C6A5B6A5A6A000E67
:1020E600F86E00010BEF04F0026E02C08AFF8C80CE
:1020F6008C8200F08C92030E016E980EE82EFED7AD
:10210600012EFCD71200026E02C08AFF8C908C82D0
:1021160000F08C92080E016ECA0EE82EFED7012E34
:10212600FCD712009268000EC16E920EC06E000EB1
:10213600C46E000EC36E1200010E86EC10F0120083
:02214600120085
:020000040020DA
:08000000FFFFFFFFFFFFFFFF00
:020000040030CA
:0E00000000051F1FFF8385FF0FC00FE00F409C
:00000001FF
